:020000040800F2
:100000005805002001010008F71700082117000813
:10001000F517000875010008671D000800000000C2
:100020000000000000000000000000004B1A000863
:100030006D03000800000000191800084D1A0008A0
:100040001B0100081B0100081B0100081B01000820
:100050001B0100081B0100081B0100081B01000810
:100060001B0100081B0100081B0100081B01000800
:100070001B0100081B0100081B0100081B010008F0
:100080001B0100081B0100081B0100081B010008E0
:100090001B0100081B0100081B0100081B010008D0
:1000A0001B0100081B0100081B0100081B010008C0
:1000B0001B0100081B0100081B0100081B010008B0
:1000C0001B0100081B0100081B0100081B010008A0
:1000D0001B0100081B0100081B0100081B01000890
:1000E0001B0100081B0100081B010008DFF80CD0F1
:1000F00000F02EF800480047612100085805002054
:100100000648804706480047FEE7FEE7FEE7FEE7B1
:10011000FEE7FEE7FEE7FEE7FEE7FEE7B51A0008AA
:10012000ED00000830B50B460146002020220124D6
:1001300009E021FA02F59D4205D303FA02F5491BB5
:1001400004FA02F52844151EA2F10102F1DC30BDCB
:10015000064C074D06E0E06840F0010394E8070014
:1001600098471034AC42F6D3FFF7C4FF4823000889
:1001700068230008FEE70A4601463F2000F026B843
:100180007CB5104D044600220121284600F0D8F924
:1001900044F080008DF804004FF47A742346012265
:1001A00001A9094800F0DAFF234601226946064802
:1001B00000F0DEFE01221146284600F0C1F99DF84C
:1001C00000007CBD000C0140C0000020F8B5104DBF
:1001D00016460F46044600220121284600F0B0F9D9
:1001E00044F0C0008DF800004FF47A7423460122D9
:1001F0006946084800F0B2FF2346324639460548B2
:1002000000F0B6FE01221146284600F099F9F8BD2B
:10021000000C0140C000002010B5302000F042F872
:10022000012000F0A4F8002000F024F80E20FFF7D1
:10023000A7FFC42801D0002010BD012010BD000080
:1002400070B50B4D50246879010604D5410701D5DE
:10025000FE2400E07F24000700D55024A879A042A6
:1002600004D021463E2000F061F8AC7170BD000062
:100270000800002010B5012804D002284FF02F01FB
:100280000AD000E06F21022000F050F82F21BDE8D5
:100290001040002000F04AB8022000F047F86F211B
:1002A000F5E7000031B5094C00220121204600F09D
:1002B00047F94FF47A7301226946054800F04EFF72
:1002C00001221146204600F03BF938BD000C0140E8
:1002D000C0000020F8B504460D463B20FFF7E2FFC2
:1002E000104E00220121304600F02AF97F208DF8BF
:1002F00000004FF47A773B46012269460A4800F035
:100300002DFF3B462A462146074800F027FF0122E1
:100310001146304600F014F9BDE8F8403520FFF7EB
:10032000C1BF0000000C0140C000002073B50D4C9F
:1003300000220121204600F003F94FF47A752B4684
:1003400001226946084800F009FF2B46012201A955
:10035000054800F003FF01221146204600F0F0F8A6
:100360007CBD0000000C0140C0000020704731B58A
:1003700000F0ECF8044600F0E9F80099001B884210
:10038000F9D338BD2DE9F84FDFF890A100220AF12A
:10039000040B144601274FF00F090BF1040E00BFA8
:1003A0000B6807FA04F52B40AB4274D1DFF870C13B
:1003B0004E68A6EB0C0866452BD00DDC032E34D01E
:1003C00005DC36B3012E19D0022E2FD11BE0112EE1
:1003D00016D0122E2AD119E0B8F5881F19D006DCE4
:1003E000B8F5803F15D0B8F5801F1FD111E0B8F5E2
:1003F000001F0ED0B8F5041F18D10AE0CA6815E036
:10040000CA68121D12E0CA6808320FE0CA680C32CE
:100410000CE08A682AB1012A4FF0080203D0456136
:1004200004E0042202E0056100E00022FF2B01D875
:10043000064601E000F104064FEA840501D9A5F162
:100440002005D6F800C009FA05F82CEA080C02FAD3
:1004500005F54CEA050CC6F800C04D68ED0057D50F
:10046000304DAE6946F00106AE61AD6924F0030679
:1004700005F0010500952C4D06EB050CDCF8085045
:10048000A6074FEA167809FA08F6B543274EB04298
:1004900002D1002610E03BE0254EB04201D10126FA
:1004A0000AE0244EB04201D1022605E0224EB042BD
:1004B00001D1032600E0042606FA08F62E43CCF804
:1004C00008604D68DAF80060ED03554601D51E431B
:1004D00000E09E432E604D68DBF80060AD035D4692
:1004E00001D51E4300E09E432E604D68DEF800609B
:1004F000ED02754601D51E4300E09E432E604D6817
:10050000AD020E4D2E6801D51E4300E09E432E60C5
:10051000641C102CFFF444AFBDE8F88F00040140C8
:1005200000001110001002400000014000080140CE
:10053000000C014000100140001401400C04014077
:100540000AB1016170470904FBE700000148006837
:10055000704700000000002002480168491C01604B
:100560007047000000000020074810B5016841F006
:1005700010010160032000F07BF8002000F006F875
:1005800000F016F8002010BD0020024010B504460F
:1005900000F044F94FF47A71B0FBF1F000F0E7FF9E
:1005A00000222146501E00F043F8002010BD00003C
:1005B0001D4808B5816941F001018161806900F041
:1005C00001000090032000F053F8002211466FF064
:1005D0000B0000F02DF8002211466FF00A0000F029
:1005E00027F8002211466FF0090000F021F80022E0
:1005F0001146501F00F01CF800221146101F00F099
:1006000017F800221146901E00F012F80022114641
:10061000501E00F00DF80548416821F0E06141F0FE
:100620008061416008BD00000010024000000140F0
:10063000F0B40E4B1B680C46C3F30223C3F107054D
:10064000042D00D90425191D072901D2002300E03B
:10065000DB1E012606FA05F1491E214099409E4005
:10066000761E16403143F0BC01F0C6B80CED00E038
:10067000064900F0070208684FF6FF03184040EAF9
:100680000220034A10430860704700000CED00E0B0
:100690000000FA052DE9F047DFF8708105460E46A7
:1006A000D8F8000000F00700B0420CD2D8F80010D3
:1006B00021F007013143C8F80010D8F8000000F01D
:1006C0000700B04277D12878514C800705D5606883
:1006D000A96820F0F000084360602878C00759D06E
:1006E0006968012001290DD0022929D05FF0020399
:1006F00093FAA3F2B2FA82F242F02002520904D035
:10070000226803E04FF40033F2E7626A93FAA3F33E
:10071000B3FA83F303F01F03984002424BD06068A2
:1007200020F0030008436060FFF710FF6968074688
:1007300041F2883001290DD00229814617D025E0E9
:100740004FF00073D4E700BFFFF700FFC11B49451E
:1007500001D918E081466068C0F381000128F3D117
:1007600018E000BFFFF7F2FEC11B49450BD86068D7
:10077000C0F381000228F5D10CE000BFFFF7E6FED0
:10078000C11B494502D90320BDE8F087606810F01D
:100790000C0FF3D1D8F80010404601F00701B14228
:1007A0000BD9016821F0070131430160006800F0B6
:1007B0000700B04201D00120E6E72878400705D5C0
:1007C0006068E96820F4E06008436060287800070A
:1007D00006D56068296920F4605040EAC100606075
:1007E00000F052F86168F02292FAA2F201F0F001F2
:1007F000B2FA82F2D140074A515CC840064908600B
:100800000020FFF7C3FE0020BEE7000000200240EA
:100810000010024030230008240000200148006836
:100820007047000024000020084809490068496812
:100830004FF4E06292FAA2F201F4E061B2FA82F2BD
:10084000D140044A515CC840704700002400002099
:100850000010024040230008084809490068496820
:100860004FF4605292FAA2F201F46051B2FA82F2AD
:10087000D140044A515CC840704700002400002069
:10088000001002404023000810B519A385B00FCB1B
:100890008DE80F001AA01B4B006804905A681A4894
:1008A00002F00C0104291DD008291BD14FF470144B
:1008B00094FAA4F402F47011B4FA84F4E140D2037F
:1008C0001DF8011010D55A684FF4003393FAA3F3C2
:1008D00002F40032B3FA83F3DA4004AB9A5CB0FB63
:1008E000F2F0484305B010BD08484843FAE700005D
:1008F00002030405060708090A0B0C0D0E0F101061
:10090000010200000010024000127A0000093D00C0
:100910002DE9F84F04460078F74DC0074FF0010667
:1009200025D068687704C0F38100012807D0686883
:10093000C0F3810002281BD16868C00318D597FA5C
:10094000A7F0B0FA80F040F02000400901D02868FC
:1009500000E0686A97FAA7F1B1FA81F101F01F018E
:1009600006FA01F108425ED0606800287CD05AE0A7
:100970006068B0F5803F0BD010B1B0F5A02F11D05A
:10098000286820F480302860286820F4802002E065
:10099000286840F480302860606828B3FFF7D6FDEF
:1009A00080460BE0286840F480202860F0E700BF14
:1009B000FFF7CCFDA0EB0800642871D897FAA7F0E8
:1009C000B0FA80F040F02000400901D0286800E033
:1009D000686A97FAA7F1B1FA81F101F01F0106FAEE
:1009E00001F10842E4D01EE0FFF7B0FD804605E0CB
:1009F000FFF7ACFDA0EB08006428DED897FAA7F05B
:100A0000B0FA80F040F02000400901D0286800E0F2
:100A1000686A97FAA7F1B1FA81F101F01F0106FAAD
:100A200001F10842E4D12078DFF8D08280074FF04E
:100A300000094FF002075BD568684FF0F80B10F023
:100A40000C0F07D06868C0F3810002281CD16868C9
:100A5000C00319D497FAA7F0B0FA80F040F0200054
:100A6000400902D0286801E08BE0686A97FAA7F194
:100A7000B1FA81F101F01F0106FA01F108422CD010
:100A8000206901287DD128E0206990B396FAA6F06C
:100A9000B0FA80F048F82060FFF758FD824607E082
:100AA00011E100BFFFF752FDA0EB0A00022884D835
:100AB00097FAA7F0B0FA80F040F02000400901D08A
:100AC000286800E0686A97FAA7F1B1FA81F101F0AD
:100AD0001F0106FA01F10842E4D028689BFAABF244
:100AE0006169B2FA82F220F0F80091400843286070
:100AF00025E0FFE796FAA6F1B1FA81F148F82190D6
:100B0000FFF724FD824605E0FFF720FDA0EB0A0079
:100B10000228CCD897FAA7F0B0FA80F040F0200075
:100B2000400901D0286800E0686A97FAA7F1B1FA95
:100B300081F101F01F0106FA01F10842E4D12078A9
:100B400000076ED5A069B8B396FAA6F0B0FA80F0A7
:100B500008EB8000C0F88064FFF7F8FC824605E0EF
:100B6000FFF7F4FCA0EB0A000228A0D897FAA7F040
:100B7000B0FA80F040F06000B6EB501F02D1286858
:100B80000CE062E197FAA7F0B0FA80F040F0600064
:100B9000B7EB501F01D1286A00E0686A97FAA7F105
:100BA000B1FA81F101F01F0106FA01F21042D7D02B
:100BB0000120FFF7DCFB34E0FFE796FAA6F1B1FA7B
:100BC00081F108EB8101C1F88094FFF7BFFC8246F8
:100BD00006E000BFFFF7BAFCA0EB0A00022872D8BB
:100BE00097FAA7F0B0FA80F040F06000B6EB501F23
:100BF00001D128680BE097FAA7F0B0FA80F040F036
:100C00006000B7EB501F01D1286A00E0686A97FACC
:100C1000A7F1B1FA81F101F01F0106FA01F21042C9
:100C2000D8D12078400765D5E86940F08050E86168
:100C3000E869DFF8CCB000F080500090DBF80010DD
:100C400041F48071CBF80010FFF780FC824605E08C
:100C5000FFF77CFCA0EB0A00642834D8DBF8000026
:100C6000C005F5D5E06801280AD008B1052813D0E1
:100C7000286A20F001002862286A20F0040002E0BF
:100C8000286A40F001002862E06841F2883B90B396
:100C9000FFF75CFC82460BE0286A40F00400286203
:100CA000EEE700BFFFF752FCA0EB0A0159450AD856
:100CB00097FAA7F0B0FA80F040F04000B6EB501F72
:100CC00002D128680CE0A3E097FAA7F0B0FA80F010
:100CD00040F04000B7EB501F01D1286A00E0686A7D
:100CE00097FAA7F1B1FA81F101F01F0206FA02F1B9
:100CF0000842D7D031E005E0001002400000424237
:100D000000700040FFF722FC824605E0FFF71EFC62
:100D1000A0EB0A0159457BD897FAA7F0B0FA80F00A
:100D200040F04000B6EB501F01D128680BE097FA65
:100D3000A7F0B0FA80F040F04000B7EB501F01D1AF
:100D4000286A00E0686A97FAA7F1B1FA81F101F028
:100D50001F0206FA02F10842D8D1E06980B369683F
:100D6000C1F38101022970D04FF080714F00022839
:100D7000484609D091FAA1F1B1FA81F148F8210071
:100D8000FFF7E4FB044669E08A4691FAA1F1B1FA63
:100D900081F1C14648F82100FFF7D8FB804605E005
:100DA000FFF7D4FBA0EB0800022854D897FAA7F06D
:100DB000B0FA80F040F02000400902D0286801E03D
:100DC00061E0686A97FAA7F1B1FA81F101F01F01B9
:100DD00006FA01F10842E3D1206AB0F5803F05D15F
:100DE0006868A16820F4003008436860D4E908010D
:100DF0000843696821F47411084368609AFAAAF0FC
:100E0000B0FA80F049F82060FFF7A0FB044606E046
:100E100021E000BFFFF79AFB001B02281BD897FABE
:100E2000A7F0B0FA80F040F02000400901D0286817
:100E300000E0686A97FAA7F1B1FA81F101F01F01A9
:100E400006FA01F10842E5D01DE01EE0FFF77EFB47
:100E5000001B022802D90320BDE8F88F97FAA7F0FB
:100E6000B0FA80F040F02000400901D0286800E08E
:100E7000686A97FAA7F1B1FA81F101F01F0106FA49
:100E800001F10842E2D10020E6E70120E4E700009A
:100E900010B5040003D094F8510010B104E0012013
:100EA00010BD204600F038F8022084F85100206878
:100EB000016821F040010160D4E901010843D4E94F
:100EC00003121143084361690843218B01F4007147
:100ED0000843E1690843216A0843A16A084321687D
:100EE0000860A069042101EA1040616A0843216892
:100EF00048602168E06A08612068C16921F40061E6
:100F0000C1610449002008706065012084F8510027
:100F1000002010BD0400002010B50068114986B003
:100F200088421CD11048816941F4805181618069F7
:100F30000E4C00F480500490A020009002200190FC
:100F40000320039069462046FFF71CFA0021402049
:100F5000CDE90001029169462046FFF713FA06B079
:100F600010BD0000003001400010024000080140A8
:100F70002DE9F84F00259A460446ADF8005090F848
:100F8000510001287ED1E9B3E2B394F85000012862
:100F900078D0012684F85060222084F851006565DD
:100FA000A163A287E287A564E5642563A586E5863B
:100FB000A0684FF40049484504D12068036823F431
:100FC00080430360A06A4FF40057B84209D12068FB
:100FD000036823F4005303602068036843F400535C
:100FE000036060684FF48278404501D1A06878B111
:100FF00020680168490603D4016841F0400101609E
:10100000E06800E001E0E8B131E00120BDE8F88FE0
:1010100084F8505013460A462046CDF800A000F050
:1010200040F9F3E7534600220121204600F0BEFCC0
:1010300048BB2068C168A06B421CA2630170E08FAE
:10104000401EE087E08F0128ECD813E053460022D1
:101050000121204600F0AAFCA8B92068C068A16B55
:101060000880A06B801CA063E08F401EE087E08FAB
:101070000128EBD8A06AB84207D12068016841F482
:10108000805101E068E007E0016053460022012141
:10109000204600F08BFC08B10320B7E7E068002889
:1010A000206817D0C068A16B0880A06B801CA0636B
:1010B000E08F401EE087A06AB84217D15346002255
:1010C0000121204600F072FC50B1606D40F002003A
:1010D0006065E1E7C168A06B421CA2630170E7E7AD
:1010E0002068C068ADF80000BDF8000060684045A9
:1010F0000AD1A068484502D0B0F5806F04D12068BD
:10110000016821F04001016084F85160A06AB84292
:101110000DD120688068C043C00608D4204600F086
:1011200043FC012807D021686FF01000886084F824
:10113000505000206AE7606D40F002006065206852
:10114000016821F4005101602068016841F40051F8
:10115000016084F8505058E7022057E72DE9F84322
:10116000044690F851009846012870D139B332B343
:1011700094F8500001286AD0012684F850601220AB
:1011800084F85100002565652163A286E286E56446
:10119000A564A563A587E587A06A7703B84209D14E
:1011A0002068016821F4005101602068016841F461
:1011B00000510160A068B0F5004F03D007E00120A6
:1011C000BDE8F8832068016841F48041016020682F
:1011D0000168490603D4016841F040010160E068FC
:1011E0000028606804D0D8B1E08E012818D021E032
:1011F00010B1E08E012808D1206B411C21632168C9
:101200000078C860E08E401EE0860004000C1FD00D
:10121000434600220221204600F0C8FBA8B9EBE7B4
:10122000206B21680088C860206B801C2063E08EE2
:10123000401EE0860004000C0AD043460022022132
:10124000204600F0B3FB0028EAD00320B8E726E0F0
:10125000A06AB84204D12068016841F4805101605D
:10126000434600220221204600F0A0FB30B943464D
:1012700001228021204600F099FB20B1606D40F0F2
:1012800010006065E1E7A06818B92068C16880684F
:10129000009084F8516084F85050002090E70220BC
:1012A0008EE72DE9F8430025DDF820800446ADF8EF
:1012B000005090F85100012803D094F851002228E2
:1012C0007DD169B162B15BB194F85000012876D04C
:1012D000012684F8506094F85100012803D005E0FD
:1012E0000120BDE8F883322084F851006565A263CF
:1012F000A387E3872163A386E386A564E564A06AE8
:101300004FF40057B84209D12068016821F4005118
:1013100001602068016841F40051016020680168A3
:10132000490603D4016841F040010160E0684FF4D0
:101330008271B0F5006F606807D0002867D08842DE
:101340006ED1E08E012862D06AE020B188420CD1D3
:10135000E08E012809D1206B21680088C860206BCD
:10136000801C2063E08E401EE086E08E80B9A06A7B
:10137000B84244D12068016841F4805101603EE0E8
:101380002068C068A16B0880A06B801CA0639EE0F1
:10139000434600220221204600F008FB002874D1B9
:1013A000206B21680088C860206B801C2063E08E61
:1013B000401E0004000CE08609D1A06A00E0C7E0EE
:1013C000B84204D12068016841F48051016043466D
:1013D00000220121204600F0E9FA00286FD12068A0
:1013E000C068A16B0880A06B801CA063E08F401ECA
:1013F000E087E08E0028CBD1606800286AD14346A0
:1014000000220121204600F0D1FAF0BBB8E7206BA2
:10141000411C216321680078C860E08E401EE08690
:10142000E08E98B9A06AB84204D12068016841F4FE
:1014300080510160434600220121204600F0B6FAA7
:1014400018BB2068C068A16B087040E043460022CA
:101450000221204600F0AAFAB8B9206B411C216392
:1014600021680078C860E08E401E0004000CE08611
:1014700007D1A06AB84204D12068016841F48051C4
:10148000016000224346012100E018E0204600F000
:101490008DFAA0B92068C168A06B421CA2630170DC
:1014A000E08F401EE087E08E0028CFD1606888B9C9
:1014B000434600220121204600F078FA08B10320BB
:1014C0000FE72068C168A06B421CA2630170E08F27
:1014D000401EE087A06AB84210D143460022012195
:1014E000204600F063FA18B1606D40F002000FE092
:1014F0002068C068ADF80000BDF800004346012236
:101500008021204600F052FA20B1606D40F01000BA
:101510006065D4E784F85160A06AB84214D12068AD
:101520008168C943C9060FD4616D41F0020161654C
:10153000016821F4005101602068016841F4005104
:10154000016084F85050CBE684F850500020C8E683
:101550000220C6E64FF0E0210428086903D020F0FD
:1015600004000861704740F00400FAE7704710B5C6
:10157000401EB0F1807F01D3012010BD4FF0E02468
:1015800060610F21601700F037F90020A06107208B
:101590002061002010BD10B5FFF7E8FF10BD70B549
:1015A000040004D094F83900002510B106E00120B1
:1015B00070BD84F83850204600F020F8022084F8EE
:1015C00039002068C16821F40051C160204600F054
:1015D000C9FA2068016921F49041016120684169DC
:1015E00021F02A0141612068C16841F40051C160C5
:1015F000E563012084F83900002070BD10B5006853
:10160000114986B088421DD11048816941F480415A
:10161000816180690E4C00F4804004904FF40070AA
:101620000090022001900320039069462046FEF7B7
:10163000A9FE00212015CDE900010291694620464E
:10164000FEF7A0FE06B010BD0038014000100240B9
:10165000000801402DE9F047044690F8390099460A
:101660000D46012801D0222858D12DB322B394F879
:101670003800012852D0012684F838600027E7633B
:1016800094F8390022281AD05FF0120084F839004B
:10169000A284E2844FF48058E08C4B46401EE084E4
:1016A000A0684FF0000240454FF08001204613D162
:1016B00000F010FB08BB04E00120BDE8F0873220F9
:1016C000E4E728882168C0F308004860206908B171
:1016D0006D1C08E0AD1C06E000F0FCFA68B921685A
:1016E00015F8010B4860E08C0028D5D14B4600224C
:1016F0004021204600F0EEFA08B10320DDE794F81F
:101700003900322806D084F8396000BF84F8387078
:101710000020D2E7222084F83900F7E70220CCE746
:10172000FEE70000F0B5204885B0816941F0100166
:101730008161816901F010010491816941F020010A
:101740008161816901F020010491816941F0040106
:101750008161816901F004010491816941F008010E
:1017600081618069114E00F00800049000220C2174
:101770003046FEF7E5FE0E4F002201213846FEF707
:10178000DFFE0C200124CDE9000402256946039503
:101790003046FEF7F7FD00946946384603950194FC
:1017A000FEF7F0FD05B0F0BD00100240000801405A
:1017B000000C01400E4810B50C4901604FF48271D5
:1017C000416000218160C1604FF400720161C0E995
:1017D0000512C1610162416281620A21C162FFF7A3
:1017E00057FB002800D0FEE710BD0000003001408C
:1017F000C0000020FEE770470907090E002806DA3E
:1018000000F00F0000F1E02080F8141D704700F197
:10181000E02080F800147047704700002DE9F04781
:101820005B4C4FF448715B4DA08942F228368842E8
:1018300019D200F079FB3620FEF734FD00210A2092
:10184000FEF774FD89212320FEF770FD3A20FEF794
:1018500029FD2878401CC1B22846FEF73BFDA0892F
:10186000401CA08191E040F2213788420BD1781CC6
:10187000A081002000F0D8FB0020E081607940F0DA
:101880008000607103E0A0F5407125392AD0E0891D
:10189000BC21401CB0FBF1F201FB1200E081A089E9
:1018A0004FF449794FF02F08484522D10220FEF726
:1018B000E1FC3620FEF7F6FCE189B1FBF8F208FB0B
:1018C000121000F021FC01460A20FEF72FFD8921AD
:1018D0002320FEF72BFDA089401CA08140F214506C
:1018E000BDE8F0873420FEF7DDFCA78142F2F0303E
:1018F000F6E7B8421AD1FB20FEF742FC00F07F0168
:10190000E17225A000F030FAE17A51B11B2908D824
:1019100020484930FEF72FFC1E48E17A493000F09C
:10192000CBFB0120FEF7A6FCFEF78AFC3620FEF773
:10193000B9FCE189B1FBF8F208FB121000F0E4FBFE
:1019400001460A20FEF7F2FC207AE179884204D0B1
:101950000C20FEF7EBFCE079207289212320FEF7B2
:10196000E5FC3A20FEF79EFC00F020FB2878401CA6
:10197000C1B20848FEF7AEFCA089401C80B2A0812D
:10198000484502D141F64C50AAE73046A8E700008E
:10199000080000205B0000204C454E47544820259D
:1019A00064200D0A00000000012070472DE9F04777
:1019B0001D4690460E460446FEF7C8FD07465FEA00
:1019C00008004FF000084FF4005A4FF0010926D0EC
:1019D00034E0681C23D025B1FEF7B8FDC01BA84237
:1019E0001DD92068416821F0E0014160206801684C
:1019F00021F040010160A06A504509D120680168CA
:101A000021F4005101602068016841F40051016037
:101A100084F8519084F850800320BDE8F087206856
:101A2000806836EA0000D4D10DE0681C06D0002D95
:101A3000D7D0FEF78BFDC01BA842D2D820688068A3
:101A400036EA0000F1D00020E7E7704710B5FEF756
:101A500083FDBDE81040FFF79EBD10B590B0022099
:101A600000900120049010200024059007946846FF
:101A7000FEF74EFF00B1FEE70F20CDE90A040C94FB
:101A80000D9400210AA80E94FEF704FE00B1FEE7B3
:101A9000FEF7C4FE4FF47A71B0FBF1F0FFF767FD7B
:101AA0000420FFF757FD00221146501EFEF7C0FD2F
:101AB00010B010BD0D48016841F00101016041689E
:101AC0000B4A1140416001680A4A114001600168F7
:101AD00021F480210160416821F4FE0141604FF44E
:101AE0001F0181600449C003086070470010024074
:101AF0000000FFF8FFFFF6FE08ED00E070B5104DA6
:101B0000687800281BD00FA000F02EF9144E307911
:101B1000010603D500F07F00687203E0012101EBAC
:101B20004000E870002405E03019C07900F09CFB0B
:101B3000641CE4B2B079A042F6D80020687070BD91
:101B4000080000202323232074656C656D65747282
:101B500079206C696E6B21202323230D0A0000007D
:101B6000400000202DE9F041044600680169E26868
:101B700021F44051114301612169A0680843616962
:101B800008432168CA6841F20C639A430243CA6061
:101B900020684169A26921F44071114341614C49B7
:101BA00020686425322688423CD1FEF755FE00EBC2
:101BB000C00101EB001061688900B0FBF1F7FEF78E
:101BC0004BFE00EBC00101EB00106168B0468900DC
:101BD000B0FBF1F0B0FBF5F06FF01801484307EBF4
:101BE000800106EB0110B0FBF5F000F0F006FEF707
:101BF00033FE00EBC00101EB001061688900B0FB0F
:101C0000F1F0B0FBF5F006EB0016FEF725FE00EB59
:101C1000C00101EB001061688900B0FBF1F7FEF72D
:101C20001BFE3BE0FEF700FE00EBC00101EB0010E5
:101C300061688900B0FBF1F7FEF7F6FD00EBC0012B
:101C400001EB00106168B0468900B0FBF1F0B0FB19
:101C5000F5F06FF01801484307EB800106EB011027
:101C6000B0FBF5F000F0F006FEF7DEFD00EBC00182
:101C700001EB001061688900B0FBF1F0B0FBF5F0FA
:101C800006EB0016FEF7D0FD00EBC00101EB0010E3
:101C900061688900B0FBF1F7FEF7C6FD00EBC001FB
:101CA00001EB001061688900B0FBF1F0B0FBF5F0CA
:101CB0006FF01801484307EB800108EB0110B0FBFF
:101CC000F5F0216800F00F0030448860BDE8F08135
:101CD000003801402DE9F0471D4690460E46044667
:101CE000FEF734FC07465FEA08004FF000094FF0AA
:101CF000010808D030E0681C05D095B1FEF726FC3D
:101D0000C01BA8420DD82068006836EA0000F2D156
:101D100027E0681C20D025B1FEF718FCC01BA842A4
:101D20001AD92068C16821F08001C1602068C168AB
:101D300021F02001C1602068C16821F48071C16078
:101D40002068416921F00101416184F8398084F8FB
:101D500038900320BDE8F0872068006836EA00006C
:101D6000D7D00020F6E7FEE70FB4054B10B503A966
:101D7000044A029800F018F810BC5DF814FB00004B
:101D8000111F00082800002002E008C8121F08C127
:101D9000002AFAD170477047002001E001C1121FEC
:101DA000002AFBD1704700002DE9FF4F89B09B4608
:101DB0000446002506E025280BD05A460B9990478B
:101DC000641C6D1C20780028F5D10DB02846BDE8B4
:101DD000F08F0027B8460122474900E0074314F876
:101DE000013F203B02FA03F00842F7D120782E2869
:101DF00019D114F8010F47F004072A280ED06FF00C
:101E00002F022078A0F1300109290CD808EB8801B5
:101E100002EB410100EB0108641CF2E70A98641C24
:101E200050F8048B0A9020780028CED0642808D07F
:101E3000692806D075281ED05A460B9990476D1C0C
:101E400058E00A994FF00A0901C90A91002802DAFC
:101E500040422D2102E0390504D52B218DF82010B8
:101E6000012103E0F90704D02021F7E78A4608AEF4
:101E70000DE00021FAE70A994FF00A0901C90A9119
:101E8000F7E74946FEF74EF9303106F8011D002804
:101E9000F7D1ADEB060000F12009780701D44FF02F
:101EA0000108C84502DDA8EB090000E000208046DB
:101EB000002706E008A85A46C05D0B9990476D1CA4
:101EC0007F1C5745F6DB04E030205A460B999047BB
:101ED0006D1CB8F10001A8F10108F5DC05E016F869
:101EE000010B5A460B9990476D1CB9F10001A9F1FD
:101EF0000109F4DC641C65E709280100034931F895
:101F0000100000EB500080B27047000084000020F9
:101F100013B56423012269460248FFF79BFB009832
:101F20001CBD0000180100202DE9F0411D4C1120BE
:101F300001262070032060701B48A670C178E170F4
:101F40008078207118480A2114388089B0FBF1F29A
:101F500001FB120000EB8000411C60718DB200F0AB
:101F6000D3F8A071681C87B2284600F0CDF8E07164
:101F7000781C85B2384600F0C7F82072681C87B21A
:101F8000284600F0C1F86072384600F0BDF8A07233
:101F90000020E07220736073A073E0732074667495
:101FA000BDE8F0815B0000201C00002030B51C4A19
:101FB000112010701B48C1785170807890701948BA
:101FC0001438807BD0700020107101215171907203
:101FD000D0721074507403461846FFF78FFF042B1D
:101FE00002EB03010BD2887102EB5304DD07A17AE7
:101FF0006D0FC0F30320A8400143A1720BE00872EB
:10200000191F02EB6101DD070C7C6D0FC0F303208B
:10201000A84004430C745B1CDBB2082BDCD330BD3E
:102020005B0000201C0000202DE9F041204E214DD6
:102030000746002406EB440116F8140049780C28E2
:1020400002D01B2802D005E0E97903E00FB143215B
:1020500000E00321FEF76AF9641CE4B2242CE9D302
:10206000E87928720120FEF705F9FEF7E9F8362035
:10207000FEF718F90FB1032102E00E481430C178C1
:102080000920FEF753F905210720FEF74FF9362006
:10209000FEF708F900210A20FEF748F989212320DC
:1020A000FEF744F9BDE8F0413A20FEF7FBB8000026
:1020B000E82200080800002010B5114A4378D478BF
:1020C000A3421CD183789278934218D10278D21C13
:1020D0008A4214D103220B4B03E0845C9C54521CB3
:1020E000D2B28A42F9D30648012114384170997955
:1020F000002904D08178491C01F01F01817010BDB6
:102100001C00002040000020C0EB00114900EB2221
:10211000B1FBF2F302FB1311032803D0172801D0FF
:102120002F2801D1491CC9B22F2801D9002070479E
:102130000846704710B5094C6079C00604D50120E7
:10214000FFF772FF002004E00020FFF76DFF40F270
:102150002230A08142F2107010BD00000800002063
:10216000334940F2DC50088048808880C880FEF700
:10217000FBF9FFF772FCFFF7D5FAFFF71BFB2C48C2
:102180002C499430002501604FF4E131C0E901157C
:102190000C21C560C0E904518561C561FFF7FFF9F5
:1021A00000B1FEE724A0FFF7DFFD012211462A4817
:1021B000FEF7C6F96420FEF7DAF8FEF72DF8642082
:1021C000FEF7D5F8254CFD20A0712570657060796B
:1021D000810602D540F010006071C0B2C10602D580
:1021E00020F0800001E040F080006071FFF7A2FF66
:1021F00005461B482061B5F5FA4F04DDA5F5FA60E8
:102200008012FEF7B4F8174E4DB1FFF777FCA81215
:10221000FEF7ADF8012204213046FEF791F920695E
:1022200080470546012204213046FEF789F9EBE795
:10223000840000200038014048656C6C6F20667295
:102240006F6D2043433235303020546573746265BE
:1022500064210D0A00000000000C0140080000206D
:102260001D18000800080140F0B51D4900251D4B50
:102270000F78012647B10A46927A541CE4B2012F26
:1022800007D0022F1AD112E07E2817D18D720E705E
:10229000F0BD7E2806D07D2806D00A2A0ED298549A
:1022A0008C720BE08D72F0BD0220087006E00A2AE5
:1022B00003D280F0200098548C720E70887A08281F
:1022C000F1D3087948B9074A00200A321C5C14543B
:1022D000401CC0B20828F9D30E710D70F0BD00008B
:1022E000080000202C00002002060006170C181819
:1022F0000619070408053EFF0B080C000D5C0E765E
:102300000F2710AA113912111323147A1542191626
:102310001A6C1B431C401D912156221023A9240A2C
:102320002500261129592C882D312E0B0307090071
:102330000000000000000000010203040607080975
:1023400000000000010203046823000800000020D0
:102350002C000000881D0008942300082C00002099
:102360002C050000981D000800000000000000007F
:10237000000000000000FD00000000000000000060
:1023800000000000000000000000000000A24A045D
:042390000000000049
:04000005080000ED02
:00000001FF
